{
  "_format": "hh-sol-artifact-1",
  "contractName": "DynamicSvgNft",
  "sourceName": "contracts/DynamicSvgNft.sol",
  "abi": [
    {
      "inputs": [
        {
          "internalType": "address",
          "name": "priceFeedAddress",
          "type": "address"
        },
        {
          "internalType": "string",
          "name": "lowSvg",
          "type": "string"
        },
        {
          "internalType": "string",
          "name": "highSvg",
          "type": "string"
        }
      ],
      "stateMutability": "nonpayable",
      "type": "constructor"
    },
    {
      "inputs": [],
      "name": "ERC721Metadata_URL_NoExistentToken",
      "type": "error"
    },
    {
      "anonymous": false,
      "inputs": [
        {
          "indexed": true,
          "internalType": "address",
          "name": "owner",
          "type": "address"
        },
        {
          "indexed": true,
          "internalType": "address",
          "name": "approved",
          "type": "address"
        },
        {
          "indexed": true,
          "internalType": "uint256",
          "name": "tokenId",
          "type": "uint256"
        }
      ],
      "name": "Approval",
      "type": "event"
    },
    {
      "anonymous": false,
      "inputs": [
        {
          "indexed": true,
          "internalType": "address",
          "name": "owner",
          "type": "address"
        },
        {
          "indexed": true,
          "internalType": "address",
          "name": "operator",
          "type": "address"
        },
        {
          "indexed": false,
          "internalType": "bool",
          "name": "approved",
          "type": "bool"
        }
      ],
      "name": "ApprovalForAll",
      "type": "event"
    },
    {
      "anonymous": false,
      "inputs": [
        {
          "indexed": true,
          "internalType": "uint256",
          "name": "tokenId",
          "type": "uint256"
        },
        {
          "indexed": false,
          "internalType": "int256",
          "name": "hightValue",
          "type": "int256"
        }
      ],
      "name": "CreatedNFT",
      "type": "event"
    },
    {
      "anonymous": false,
      "inputs": [
        {
          "indexed": true,
          "internalType": "address",
          "name": "previousOwner",
          "type": "address"
        },
        {
          "indexed": true,
          "internalType": "address",
          "name": "newOwner",
          "type": "address"
        }
      ],
      "name": "OwnershipTransferred",
      "type": "event"
    },
    {
      "anonymous": false,
      "inputs": [
        {
          "indexed": true,
          "internalType": "address",
          "name": "from",
          "type": "address"
        },
        {
          "indexed": true,
          "internalType": "address",
          "name": "to",
          "type": "address"
        },
        {
          "indexed": true,
          "internalType": "uint256",
          "name": "tokenId",
          "type": "uint256"
        }
      ],
      "name": "Transfer",
      "type": "event"
    },
    {
      "inputs": [
        {
          "internalType": "address",
          "name": "to",
          "type": "address"
        },
        {
          "internalType": "uint256",
          "name": "tokenId",
          "type": "uint256"
        }
      ],
      "name": "approve",
      "outputs": [],
      "stateMutability": "nonpayable",
      "type": "function"
    },
    {
      "inputs": [
        {
          "internalType": "address",
          "name": "owner",
          "type": "address"
        }
      ],
      "name": "balanceOf",
      "outputs": [
        {
          "internalType": "uint256",
          "name": "",
          "type": "uint256"
        }
      ],
      "stateMutability": "view",
      "type": "function"
    },
    {
      "inputs": [
        {
          "internalType": "uint256",
          "name": "tokenId",
          "type": "uint256"
        }
      ],
      "name": "getApproved",
      "outputs": [
        {
          "internalType": "address",
          "name": "",
          "type": "address"
        }
      ],
      "stateMutability": "view",
      "type": "function"
    },
    {
      "inputs": [],
      "name": "getHighSVG",
      "outputs": [
        {
          "internalType": "string",
          "name": "",
          "type": "string"
        }
      ],
      "stateMutability": "view",
      "type": "function"
    },
    {
      "inputs": [],
      "name": "getLowSVG",
      "outputs": [
        {
          "internalType": "string",
          "name": "",
          "type": "string"
        }
      ],
      "stateMutability": "view",
      "type": "function"
    },
    {
      "inputs": [],
      "name": "getPriceFeed",
      "outputs": [
        {
          "internalType": "contract AggregatorV3Interface",
          "name": "",
          "type": "address"
        }
      ],
      "stateMutability": "view",
      "type": "function"
    },
    {
      "inputs": [],
      "name": "getTokenCounter",
      "outputs": [
        {
          "internalType": "uint256",
          "name": "",
          "type": "uint256"
        }
      ],
      "stateMutability": "view",
      "type": "function"
    },
    {
      "inputs": [
        {
          "internalType": "address",
          "name": "owner",
          "type": "address"
        },
        {
          "internalType": "address",
          "name": "operator",
          "type": "address"
        }
      ],
      "name": "isApprovedForAll",
      "outputs": [
        {
          "internalType": "bool",
          "name": "",
          "type": "bool"
        }
      ],
      "stateMutability": "view",
      "type": "function"
    },
    {
      "inputs": [
        {
          "internalType": "int256",
          "name": "highValue",
          "type": "int256"
        }
      ],
      "name": "mintNft",
      "outputs": [],
      "stateMutability": "nonpayable",
      "type": "function"
    },
    {
      "inputs": [],
      "name": "name",
      "outputs": [
        {
          "internalType": "string",
          "name": "",
          "type": "string"
        }
      ],
      "stateMutability": "view",
      "type": "function"
    },
    {
      "inputs": [],
      "name": "owner",
      "outputs": [
        {
          "internalType": "address",
          "name": "",
          "type": "address"
        }
      ],
      "stateMutability": "view",
      "type": "function"
    },
    {
      "inputs": [
        {
          "internalType": "uint256",
          "name": "tokenId",
          "type": "uint256"
        }
      ],
      "name": "ownerOf",
      "outputs": [
        {
          "internalType": "address",
          "name": "",
          "type": "address"
        }
      ],
      "stateMutability": "view",
      "type": "function"
    },
    {
      "inputs": [],
      "name": "renounceOwnership",
      "outputs": [],
      "stateMutability": "nonpayable",
      "type": "function"
    },
    {
      "inputs": [
        {
          "internalType": "address",
          "name": "from",
          "type": "address"
        },
        {
          "internalType": "address",
          "name": "to",
          "type": "address"
        },
        {
          "internalType": "uint256",
          "name": "tokenId",
          "type": "uint256"
        }
      ],
      "name": "safeTransferFrom",
      "outputs": [],
      "stateMutability": "nonpayable",
      "type": "function"
    },
    {
      "inputs": [
        {
          "internalType": "address",
          "name": "from",
          "type": "address"
        },
        {
          "internalType": "address",
          "name": "to",
          "type": "address"
        },
        {
          "internalType": "uint256",
          "name": "tokenId",
          "type": "uint256"
        },
        {
          "internalType": "bytes",
          "name": "data",
          "type": "bytes"
        }
      ],
      "name": "safeTransferFrom",
      "outputs": [],
      "stateMutability": "nonpayable",
      "type": "function"
    },
    {
      "inputs": [
        {
          "internalType": "address",
          "name": "operator",
          "type": "address"
        },
        {
          "internalType": "bool",
          "name": "approved",
          "type": "bool"
        }
      ],
      "name": "setApprovalForAll",
      "outputs": [],
      "stateMutability": "nonpayable",
      "type": "function"
    },
    {
      "inputs": [
        {
          "internalType": "bytes4",
          "name": "interfaceId",
          "type": "bytes4"
        }
      ],
      "name": "supportsInterface",
      "outputs": [
        {
          "internalType": "bool",
          "name": "",
          "type": "bool"
        }
      ],
      "stateMutability": "view",
      "type": "function"
    },
    {
      "inputs": [
        {
          "internalType": "string",
          "name": "svg",
          "type": "string"
        }
      ],
      "name": "svgToImageURI",
      "outputs": [
        {
          "internalType": "string",
          "name": "",
          "type": "string"
        }
      ],
      "stateMutability": "pure",
      "type": "function"
    },
    {
      "inputs": [],
      "name": "symbol",
      "outputs": [
        {
          "internalType": "string",
          "name": "",
          "type": "string"
        }
      ],
      "stateMutability": "view",
      "type": "function"
    },
    {
      "inputs": [
        {
          "internalType": "uint256",
          "name": "tokenId",
          "type": "uint256"
        }
      ],
      "name": "tokenURI",
      "outputs": [
        {
          "internalType": "string",
          "name": "",
          "type": "string"
        }
      ],
      "stateMutability": "view",
      "type": "function"
    },
    {
      "inputs": [
        {
          "internalType": "address",
          "name": "from",
          "type": "address"
        },
        {
          "internalType": "address",
          "name": "to",
          "type": "address"
        },
        {
          "internalType": "uint256",
          "name": "tokenId",
          "type": "uint256"
        }
      ],
      "name": "transferFrom",
      "outputs": [],
      "stateMutability": "nonpayable",
      "type": "function"
    },
    {
      "inputs": [
        {
          "internalType": "address",
          "name": "newOwner",
          "type": "address"
        }
      ],
      "name": "transferOwnership",
      "outputs": [],
      "stateMutability": "nonpayable",
      "type": "function"
    }
  ],
  "bytecode": "0x60a06040523480156200001157600080fd5b5060405162003f6338038062003f63833981810160405281019062000037919062000743565b6040518060400160405280600f81526020017f44796e616d696320537667204e667400000000000000000000000000000000008152506040518060400160405280600381526020017f44534e00000000000000000000000000000000000000000000000000000000008152508160009080519060200190620000bb92919062000491565b508060019080519060200190620000d492919062000491565b505050620000f7620000eb6200019160201b60201c565b6200019960201b60201c565b60006007819055508273ffffffffffffffffffffffffffffffffffffffff1660808173ffffffffffffffffffffffffffffffffffffffff1660601b8152505062000147826200025f60201b60201c565b600890805190602001906200015e92919062000491565b5062000170816200025f60201b60201c565b600990805190602001906200018792919062000491565b5050505062000a2e565b600033905090565b6000600660009054906101000a900473ffffffffffffffffffffffffffffffffffffffff16905081600660006101000a81548173ffffffffffffffffffffffffffffffffffffffff021916908373ffffffffffffffffffffffffffffffffffffffff1602179055508173ffffffffffffffffffffffffffffffffffffffff168173ffffffffffffffffffffffffffffffffffffffff167f8be0079c531659141344cd1fd0a4f28419497f9722a3daafe3b4186f6b6457e060405160405180910390a35050565b606060006040518060400160405280601a81526020017f646174613a696d6167652f7376672b786d6c3b6261736536342c00000000000081525090506000620002d484604051602001620002b491906200082a565b6040516020818303038152906040526200030360201b620010091760201c565b90508181604051602001620002eb92919062000843565b60405160208183030381529060405292505050919050565b606060008251141562000328576040518060200160405280600081525090506200048c565b600060405180606001604052806040815260200162003f2360409139905060006003600285516200035a9190620008a4565b62000366919062000930565b600462000374919062000968565b90506000602082620003879190620008a4565b67ffffffffffffffff811115620003a357620003a2620005d5565b5b6040519080825280601f01601f191660200182016040528015620003d65781602001600182028036833780820191505090505b509050818152600183018586518101602084015b8183101562000447576003830192508251603f8160121c168501518253600182019150603f81600c1c168501518253600182019150603f8160061c168501518253600182019150603f8116850151825360018201915050620003ea565b600389510660018114620004645760028114620004755762000480565b613d3d60f01b600283035262000480565b603d60f81b60018303525b50505050508093505050505b919050565b8280546200049f90620009f8565b90600052602060002090601f016020900481019282620004c357600085556200050f565b82601f10620004de57805160ff19168380011785556200050f565b828001600101855582156200050f579182015b828111156200050e578251825591602001919060010190620004f1565b5b5090506200051e919062000522565b5090565b5b808211156200053d57600081600090555060010162000523565b5090565b6000604051905090565b600080fd5b600080fd5b600073ffffffffffffffffffffffffffffffffffffffff82169050919050565b6000620005828262000555565b9050919050565b620005948162000575565b8114620005a057600080fd5b50565b600081519050620005b48162000589565b92915050565b600080fd5b600080fd5b6000601f19601f8301169050919050565b7f4e487b7100000000000000000000000000000000000000000000000000000000600052604160045260246000fd5b6200060f82620005c4565b810181811067ffffffffffffffff82111715620006315762000630620005d5565b5b80604052505050565b60006200064662000541565b905062000654828262000604565b919050565b600067ffffffffffffffff821115620006775762000676620005d5565b5b6200068282620005c4565b9050602081019050919050565b60005b83811015620006af57808201518184015260208101905062000692565b83811115620006bf576000848401525b50505050565b6000620006dc620006d68462000659565b6200063a565b905082815260208101848484011115620006fb57620006fa620005bf565b5b620007088482856200068f565b509392505050565b600082601f830112620007285762000727620005ba565b5b81516200073a848260208601620006c5565b91505092915050565b6000806000606084860312156200075f576200075e6200054b565b5b60006200076f86828701620005a3565b935050602084015167ffffffffffffffff81111562000793576200079262000550565b5b620007a18682870162000710565b925050604084015167ffffffffffffffff811115620007c557620007c462000550565b5b620007d38682870162000710565b9150509250925092565b600081519050919050565b600081905092915050565b60006200080082620007dd565b6200080c8185620007e8565b93506200081e8185602086016200068f565b80840191505092915050565b6000620008388284620007f3565b915081905092915050565b6000620008518285620007f3565b91506200085f8284620007f3565b91508190509392505050565b6000819050919050565b7f4e487b7100000000000000000000000000000000000000000000000000000000600052601160045260246000fd5b6000620008b1826200086b565b9150620008be836200086b565b9250827fffffffffffffffffffffffffffffffffffffffffffffffffffffffffffffffff03821115620008f657620008f562000875565b5b828201905092915050565b7f4e487b7100000000000000000000000000000000000000000000000000000000600052601260045260246000fd5b60006200093d826200086b565b91506200094a836200086b565b9250826200095d576200095c62000901565b5b828204905092915050565b600062000975826200086b565b915062000982836200086b565b9250817fffffffffffffffffffffffffffffffffffffffffffffffffffffffffffffffff0483118215151615620009be57620009bd62000875565b5b828202905092915050565b7f4e487b7100000000000000000000000000000000000000000000000000000000600052602260045260246000fd5b6000600282049050600182168062000a1157607f821691505b6020821081141562000a285762000a27620009c9565b5b50919050565b60805160601c6134cf62000a5460003960008181610b430152610c2401526134cf6000f3fe608060405234801561001057600080fd5b50600436106101425760003560e01c8063715018a6116100b8578063a22cb4651161007c578063a22cb46514610365578063b88d4fde14610381578063c87b56dd1461039d578063e985e9c5146103cd578063ed28a122146103fd578063f2fde38b1461041b57610142565b8063715018a6146102e357806376f6056b146102ed5780638da5cb5b1461030b57806395d89b41146103295780639e87a5cd1461034757610142565b806323b872dd1161010a57806323b872dd146101fd57806330d871c61461021957806342842e0e146102495780636352211e146102655780636e02007d1461029557806370a08231146102b357610142565b806301ffc9a71461014757806306fdde0314610177578063081812fc14610195578063095ea7b3146101c55780631e930812146101e1575b600080fd5b610161600480360381019061015c9190612038565b610437565b60405161016e9190612080565b60405180910390f35b61017f610519565b60405161018c9190612134565b60405180910390f35b6101af60048036038101906101aa919061218c565b6105ab565b6040516101bc91906121fa565b60405180910390f35b6101df60048036038101906101da9190612241565b6105f1565b005b6101fb60048036038101906101f691906122b7565b610709565b005b610217600480360381019061021291906122e4565b610781565b005b610233600480360381019061022e919061246c565b6107e1565b6040516102409190612134565b60405180910390f35b610263600480360381019061025e91906122e4565b610874565b005b61027f600480360381019061027a919061218c565b610894565b60405161028c91906121fa565b60405180910390f35b61029d61091b565b6040516102aa91906124c4565b60405180910390f35b6102cd60048036038101906102c891906124df565b610925565b6040516102da91906124c4565b60405180910390f35b6102eb6109dd565b005b6102f56109f1565b6040516103029190612134565b60405180910390f35b610313610a83565b60405161032091906121fa565b60405180910390f35b610331610aad565b60405161033e9190612134565b60405180910390f35b61034f610b3f565b60405161035c919061256b565b60405180910390f35b61037f600480360381019061037a91906125b2565b610b67565b005b61039b60048036038101906103969190612693565b610b7d565b005b6103b760048036038101906103b2919061218c565b610bdf565b6040516103c49190612134565b60405180910390f35b6103e760048036038101906103e29190612716565b610e5f565b6040516103f49190612080565b60405180910390f35b610405610ef3565b6040516104129190612134565b60405180910390f35b610435600480360381019061043091906124df565b610f85565b005b60007f80ac58cd000000000000000000000000000000000000000000000000000000007bffffffffffffffffffffffffffffffffffffffffffffffffffffffff1916827bffffffffffffffffffffffffffffffffffffffffffffffffffffffff1916148061050257507f5b5e139f000000000000000000000000000000000000000000000000000000007bffffffffffffffffffffffffffffffffffffffffffffffffffffffff1916827bffffffffffffffffffffffffffffffffffffffffffffffffffffffff1916145b80610512575061051182611182565b5b9050919050565b60606000805461052890612785565b80601f016020809104026020016040519081016040528092919081815260200182805461055490612785565b80156105a15780601f10610576576101008083540402835291602001916105a1565b820191906000526020600020905b81548152906001019060200180831161058457829003601f168201915b5050505050905090565b60006105b6826111ec565b6004600083815260200190815260200160002060009054906101000a900473ffffffffffffffffffffffffffffffffffffffff169050919050565b60006105fc82610894565b90508073ffffffffffffffffffffffffffffffffffffffff168373ffffffffffffffffffffffffffffffffffffffff16141561066d576040517f08c379a000000000000000000000000000000000000000000000000000000000815260040161066490612829565b60405180910390fd5b8073ffffffffffffffffffffffffffffffffffffffff1661068c611237565b73ffffffffffffffffffffffffffffffffffffffff1614806106bb57506106ba816106b5611237565b610e5f565b5b6106fa576040517f08c379a00000000000000000000000000000000000000000000000000000000081526004016106f1906128bb565b60405180910390fd5b610704838361123f565b505050565b80600a600060075481526020019081526020016000208190555061072f336007546112f8565b600160075461073e919061290a565b6007819055506007547f882d3b5a729a8bb95cf6c0083c99b42ecd9637123d4425bd7b768877fd8af8b082604051610776919061296f565b60405180910390a250565b61079261078c611237565b82611316565b6107d1576040517f08c379a00000000000000000000000000000000000000000000000000000000081526004016107c8906129fc565b60405180910390fd5b6107dc8383836113ab565b505050565b606060006040518060400160405280601a81526020017f646174613a696d6167652f7376672b786d6c3b6261736536342c00000000000081525090506000610847846040516020016108339190612a58565b604051602081830303815290604052611009565b9050818160405160200161085c929190612a6f565b60405160208183030381529060405292505050919050565b61088f83838360405180602001604052806000815250610b7d565b505050565b6000806108a0836116a5565b9050600073ffffffffffffffffffffffffffffffffffffffff168173ffffffffffffffffffffffffffffffffffffffff161415610912576040517f08c379a000000000000000000000000000000000000000000000000000000000815260040161090990612adf565b60405180910390fd5b80915050919050565b6000600754905090565b60008073ffffffffffffffffffffffffffffffffffffffff168273ffffffffffffffffffffffffffffffffffffffff161415610996576040517f08c379a000000000000000000000000000000000000000000000000000000000815260040161098d90612b71565b60405180910390fd5b600360008373ffffffffffffffffffffffffffffffffffffffff1673ffffffffffffffffffffffffffffffffffffffff168152602001908152602001600020549050919050565b6109e56116e2565b6109ef6000611760565b565b606060098054610a0090612785565b80601f0160208091040260200160405190810160405280929190818152602001828054610a2c90612785565b8015610a795780601f10610a4e57610100808354040283529160200191610a79565b820191906000526020600020905b815481529060010190602001808311610a5c57829003601f168201915b5050505050905090565b6000600660009054906101000a900473ffffffffffffffffffffffffffffffffffffffff16905090565b606060018054610abc90612785565b80601f0160208091040260200160405190810160405280929190818152602001828054610ae890612785565b8015610b355780601f10610b0a57610100808354040283529160200191610b35565b820191906000526020600020905b815481529060010190602001808311610b1857829003601f168201915b5050505050905090565b60007f0000000000000000000000000000000000000000000000000000000000000000905090565b610b79610b72611237565b8383611826565b5050565b610b8e610b88611237565b83611316565b610bcd576040517f08c379a0000000000000000000000000000000000000000000000000000000008152600401610bc4906129fc565b60405180910390fd5b610bd984848484611993565b50505050565b6060610bea826119ef565b610c20576040517f0e5b08bd00000000000000000000000000000000000000000000000000000000815260040160405180910390fd5b60007f000000000000000000000000000000000000000000000000000000000000000073ffffffffffffffffffffffffffffffffffffffff1663feaf968c6040518163ffffffff1660e01b815260040160a06040518083038186803b158015610c8857600080fd5b505afa158015610c9c573d6000803e3d6000fd5b505050506040513d601f19601f82011682018060405250810190610cc09190612bfd565b505050915050600060088054610cd590612785565b80601f0160208091040260200160405190810160405280929190818152602001828054610d0190612785565b8015610d4e5780601f10610d2357610100808354040283529160200191610d4e565b820191906000526020600020905b815481529060010190602001808311610d3157829003601f168201915b50505050509050600a6000858152602001908152602001600020548212610dfd5760098054610d7c90612785565b80601f0160208091040260200160405190810160405280929190818152602001828054610da890612785565b8015610df55780601f10610dca57610100808354040283529160200191610df5565b820191906000526020600020905b815481529060010190602001808311610dd857829003601f168201915b505050505090505b610e05611a30565b610e36610e10610519565b83604051602001610e22929190612e40565b604051602081830303815290604052611009565b604051602001610e47929190612a6f565b60405160208183030381529060405292505050919050565b6000600560008473ffffffffffffffffffffffffffffffffffffffff1673ffffffffffffffffffffffffffffffffffffffff16815260200190815260200160002060008373ffffffffffffffffffffffffffffffffffffffff1673ffffffffffffffffffffffffffffffffffffffff16815260200190815260200160002060009054906101000a900460ff16905092915050565b606060088054610f0290612785565b80601f0160208091040260200160405190810160405280929190818152602001828054610f2e90612785565b8015610f7b5780601f10610f5057610100808354040283529160200191610f7b565b820191906000526020600020905b815481529060010190602001808311610f5e57829003601f168201915b5050505050905090565b610f8d6116e2565b600073ffffffffffffffffffffffffffffffffffffffff168173ffffffffffffffffffffffffffffffffffffffff161415610ffd576040517f08c379a0000000000000000000000000000000000000000000000000000000008152600401610ff490612f02565b60405180910390fd5b61100681611760565b50565b606060008251141561102c5760405180602001604052806000815250905061117d565b600060405180606001604052806040815260200161345a604091399050600060036002855161105b919061290a565b6110659190612f51565b60046110719190612f82565b90506000602082611082919061290a565b67ffffffffffffffff81111561109b5761109a612341565b5b6040519080825280601f01601f1916602001820160405280156110cd5781602001600182028036833780820191505090505b509050818152600183018586518101602084015b8183101561113c576003830192508251603f8160121c168501518253600182019150603f81600c1c168501518253600182019150603f8160061c168501518253600182019150603f81168501518253600182019150506110e1565b600389510660018114611156576002811461116657611171565b613d3d60f01b6002830352611171565b603d60f81b60018303525b50505050508093505050505b919050565b60007f01ffc9a7000000000000000000000000000000000000000000000000000000007bffffffffffffffffffffffffffffffffffffffffffffffffffffffff1916827bffffffffffffffffffffffffffffffffffffffffffffffffffffffff1916149050919050565b6111f5816119ef565b611234576040517f08c379a000000000000000000000000000000000000000000000000000000000815260040161122b90612adf565b60405180910390fd5b50565b600033905090565b816004600083815260200190815260200160002060006101000a81548173ffffffffffffffffffffffffffffffffffffffff021916908373ffffffffffffffffffffffffffffffffffffffff160217905550808273ffffffffffffffffffffffffffffffffffffffff166112b283610894565b73ffffffffffffffffffffffffffffffffffffffff167f8c5be1e5ebec7d5bd14f71427d1e84f3dd0314c0f7b2291e5b200ac8c7c3b92560405160405180910390a45050565b611312828260405180602001604052806000815250611a6d565b5050565b60008061132283610894565b90508073ffffffffffffffffffffffffffffffffffffffff168473ffffffffffffffffffffffffffffffffffffffff16148061136457506113638185610e5f565b5b806113a257508373ffffffffffffffffffffffffffffffffffffffff1661138a846105ab565b73ffffffffffffffffffffffffffffffffffffffff16145b91505092915050565b8273ffffffffffffffffffffffffffffffffffffffff166113cb82610894565b73ffffffffffffffffffffffffffffffffffffffff1614611421576040517f08c379a00000000000000000000000000000000000000000000000000000000081526004016114189061304e565b60405180910390fd5b600073ffffffffffffffffffffffffffffffffffffffff168273ffffffffffffffffffffffffffffffffffffffff161415611491576040517f08c379a0000000000000000000000000000000000000000000000000000000008152600401611488906130e0565b60405180910390fd5b61149e8383836001611ac8565b8273ffffffffffffffffffffffffffffffffffffffff166114be82610894565b73ffffffffffffffffffffffffffffffffffffffff1614611514576040517f08c379a000000000000000000000000000000000000000000000000000000000815260040161150b9061304e565b60405180910390fd5b6004600082815260200190815260200160002060006101000a81549073ffffffffffffffffffffffffffffffffffffffff02191690556001600360008573ffffffffffffffffffffffffffffffffffffffff1673ffffffffffffffffffffffffffffffffffffffff168152602001908152602001600020600082825403925050819055506001600360008473ffffffffffffffffffffffffffffffffffffffff1673ffffffffffffffffffffffffffffffffffffffff16815260200190815260200160002060008282540192505081905550816002600083815260200190815260200160002060006101000a81548173ffffffffffffffffffffffffffffffffffffffff021916908373ffffffffffffffffffffffffffffffffffffffff160217905550808273ffffffffffffffffffffffffffffffffffffffff168473ffffffffffffffffffffffffffffffffffffffff167fddf252ad1be2c89b69c2b068fc378daa952ba7f163c4a11628f55a4df523b3ef60405160405180910390a46116a08383836001611bee565b505050565b60006002600083815260200190815260200160002060009054906101000a900473ffffffffffffffffffffffffffffffffffffffff169050919050565b6116ea611237565b73ffffffffffffffffffffffffffffffffffffffff16611708610a83565b73ffffffffffffffffffffffffffffffffffffffff161461175e576040517f08c379a00000000000000000000000000000000000000000000000000000000081526004016117559061314c565b60405180910390fd5b565b6000600660009054906101000a900473ffffffffffffffffffffffffffffffffffffffff16905081600660006101000a81548173ffffffffffffffffffffffffffffffffffffffff021916908373ffffffffffffffffffffffffffffffffffffffff1602179055508173ffffffffffffffffffffffffffffffffffffffff168173ffffffffffffffffffffffffffffffffffffffff167f8be0079c531659141344cd1fd0a4f28419497f9722a3daafe3b4186f6b6457e060405160405180910390a35050565b8173ffffffffffffffffffffffffffffffffffffffff168373ffffffffffffffffffffffffffffffffffffffff161415611895576040517f08c379a000000000000000000000000000000000000000000000000000000000815260040161188c906131b8565b60405180910390fd5b80600560008573ffffffffffffffffffffffffffffffffffffffff1673ffffffffffffffffffffffffffffffffffffffff16815260200190815260200160002060008473ffffffffffffffffffffffffffffffffffffffff1673ffffffffffffffffffffffffffffffffffffffff16815260200190815260200160002060006101000a81548160ff0219169083151502179055508173ffffffffffffffffffffffffffffffffffffffff168373ffffffffffffffffffffffffffffffffffffffff167f17307eab39ab6107e8899845ad3d59bd9653f200f220920489ca2b5937696c31836040516119869190612080565b60405180910390a3505050565b61199e8484846113ab565b6119aa84848484611bf4565b6119e9576040517f08c379a00000000000000000000000000000000000000000000000000000000081526004016119e09061324a565b60405180910390fd5b50505050565b60008073ffffffffffffffffffffffffffffffffffffffff16611a11836116a5565b73ffffffffffffffffffffffffffffffffffffffff1614159050919050565b60606040518060400160405280601d81526020017f646174613a6170706c69636174696f6e2f6a736f6e3b6261736536342c000000815250905090565b611a778383611d8b565b611a846000848484611bf4565b611ac3576040517f08c379a0000000000000000000000000000000000000000000000000000000008152600401611aba9061324a565b60405180910390fd5b505050565b6001811115611be857600073ffffffffffffffffffffffffffffffffffffffff168473ffffffffffffffffffffffffffffffffffffffff1614611b5c5780600360008673ffffffffffffffffffffffffffffffffffffffff1673ffffffffffffffffffffffffffffffffffffffff1681526020019081526020016000206000828254611b54919061326a565b925050819055505b600073ffffffffffffffffffffffffffffffffffffffff168373ffffffffffffffffffffffffffffffffffffffff1614611be75780600360008573ffffffffffffffffffffffffffffffffffffffff1673ffffffffffffffffffffffffffffffffffffffff1681526020019081526020016000206000828254611bdf919061290a565b925050819055505b5b50505050565b50505050565b6000611c158473ffffffffffffffffffffffffffffffffffffffff16611fa9565b15611d7e578373ffffffffffffffffffffffffffffffffffffffff1663150b7a02611c3e611237565b8786866040518563ffffffff1660e01b8152600401611c6094939291906132f3565b602060405180830381600087803b158015611c7a57600080fd5b505af1925050508015611cab57506040513d601f19601f82011682018060405250810190611ca89190613354565b60015b611d2e573d8060008114611cdb576040519150601f19603f3d011682016040523d82523d6000602084013e611ce0565b606091505b50600081511415611d26576040517f08c379a0000000000000000000000000000000000000000000000000000000008152600401611d1d9061324a565b60405180910390fd5b805181602001fd5b63150b7a0260e01b7bffffffffffffffffffffffffffffffffffffffffffffffffffffffff1916817bffffffffffffffffffffffffffffffffffffffffffffffffffffffff191614915050611d83565b600190505b949350505050565b600073ffffffffffffffffffffffffffffffffffffffff168273ffffffffffffffffffffffffffffffffffffffff161415611dfb576040517f08c379a0000000000000000000000000000000000000000000000000000000008152600401611df2906133cd565b60405180910390fd5b611e04816119ef565b15611e44576040517f08c379a0000000000000000000000000000000000000000000000000000000008152600401611e3b90613439565b60405180910390fd5b611e52600083836001611ac8565b611e5b816119ef565b15611e9b576040517f08c379a0000000000000000000000000000000000000000000000000000000008152600401611e9290613439565b60405180910390fd5b6001600360008473ffffffffffffffffffffffffffffffffffffffff1673ffffffffffffffffffffffffffffffffffffffff16815260200190815260200160002060008282540192505081905550816002600083815260200190815260200160002060006101000a81548173ffffffffffffffffffffffffffffffffffffffff021916908373ffffffffffffffffffffffffffffffffffffffff160217905550808273ffffffffffffffffffffffffffffffffffffffff16600073ffffffffffffffffffffffffffffffffffffffff167fddf252ad1be2c89b69c2b068fc378daa952ba7f163c4a11628f55a4df523b3ef60405160405180910390a4611fa5600083836001611bee565b5050565b6000808273ffffffffffffffffffffffffffffffffffffffff163b119050919050565b6000604051905090565b600080fd5b600080fd5b60007fffffffff0000000000000000000000000000000000000000000000000000000082169050919050565b61201581611fe0565b811461202057600080fd5b50565b6000813590506120328161200c565b92915050565b60006020828403121561204e5761204d611fd6565b5b600061205c84828501612023565b91505092915050565b60008115159050919050565b61207a81612065565b82525050565b60006020820190506120956000830184612071565b92915050565b600081519050919050565b600082825260208201905092915050565b60005b838110156120d55780820151818401526020810190506120ba565b838111156120e4576000848401525b50505050565b6000601f19601f8301169050919050565b60006121068261209b565b61211081856120a6565b93506121208185602086016120b7565b612129816120ea565b840191505092915050565b6000602082019050818103600083015261214e81846120fb565b905092915050565b6000819050919050565b61216981612156565b811461217457600080fd5b50565b60008135905061218681612160565b92915050565b6000602082840312156121a2576121a1611fd6565b5b60006121b084828501612177565b91505092915050565b600073ffffffffffffffffffffffffffffffffffffffff82169050919050565b60006121e4826121b9565b9050919050565b6121f4816121d9565b82525050565b600060208201905061220f60008301846121eb565b92915050565b61221e816121d9565b811461222957600080fd5b50565b60008135905061223b81612215565b92915050565b6000806040838503121561225857612257611fd6565b5b60006122668582860161222c565b925050602061227785828601612177565b9150509250929050565b6000819050919050565b61229481612281565b811461229f57600080fd5b50565b6000813590506122b18161228b565b92915050565b6000602082840312156122cd576122cc611fd6565b5b60006122db848285016122a2565b91505092915050565b6000806000606084860312156122fd576122fc611fd6565b5b600061230b8682870161222c565b935050602061231c8682870161222c565b925050604061232d86828701612177565b9150509250925092565b600080fd5b600080fd5b7f4e487b7100000000000000000000000000000000000000000000000000000000600052604160045260246000fd5b612379826120ea565b810181811067ffffffffffffffff8211171561239857612397612341565b5b80604052505050565b60006123ab611fcc565b90506123b78282612370565b919050565b600067ffffffffffffffff8211156123d7576123d6612341565b5b6123e0826120ea565b9050602081019050919050565b82818337600083830152505050565b600061240f61240a846123bc565b6123a1565b90508281526020810184848401111561242b5761242a61233c565b5b6124368482856123ed565b509392505050565b600082601f83011261245357612452612337565b5b81356124638482602086016123fc565b91505092915050565b60006020828403121561248257612481611fd6565b5b600082013567ffffffffffffffff8111156124a05761249f611fdb565b5b6124ac8482850161243e565b91505092915050565b6124be81612156565b82525050565b60006020820190506124d960008301846124b5565b92915050565b6000602082840312156124f5576124f4611fd6565b5b60006125038482850161222c565b91505092915050565b6000819050919050565b600061253161252c612527846121b9565b61250c565b6121b9565b9050919050565b600061254382612516565b9050919050565b600061255582612538565b9050919050565b6125658161254a565b82525050565b6000602082019050612580600083018461255c565b92915050565b61258f81612065565b811461259a57600080fd5b50565b6000813590506125ac81612586565b92915050565b600080604083850312156125c9576125c8611fd6565b5b60006125d78582860161222c565b92505060206125e88582860161259d565b9150509250929050565b600067ffffffffffffffff82111561260d5761260c612341565b5b612616826120ea565b9050602081019050919050565b6000612636612631846125f2565b6123a1565b9050828152602081018484840111156126525761265161233c565b5b61265d8482856123ed565b509392505050565b600082601f83011261267a57612679612337565b5b813561268a848260208601612623565b91505092915050565b600080600080608085870312156126ad576126ac611fd6565b5b60006126bb8782880161222c565b94505060206126cc8782880161222c565b93505060406126dd87828801612177565b925050606085013567ffffffffffffffff8111156126fe576126fd611fdb565b5b61270a87828801612665565b91505092959194509250565b6000806040838503121561272d5761272c611fd6565b5b600061273b8582860161222c565b925050602061274c8582860161222c565b9150509250929050565b7f4e487b7100000000000000000000000000000000000000000000000000000000600052602260045260246000fd5b6000600282049050600182168061279d57607f821691505b602082108114156127b1576127b0612756565b5b50919050565b7f4552433732313a20617070726f76616c20746f2063757272656e74206f776e6560008201527f7200000000000000000000000000000000000000000000000000000000000000602082015250565b60006128136021836120a6565b915061281e826127b7565b604082019050919050565b6000602082019050818103600083015261284281612806565b9050919050565b7f4552433732313a20617070726f76652063616c6c6572206973206e6f7420746f60008201527f6b656e206f776e6572206f7220617070726f76656420666f7220616c6c000000602082015250565b60006128a5603d836120a6565b91506128b082612849565b604082019050919050565b600060208201905081810360008301526128d481612898565b9050919050565b7f4e487b7100000000000000000000000000000000000000000000000000000000600052601160045260246000fd5b600061291582612156565b915061292083612156565b9250827fffffffffffffffffffffffffffffffffffffffffffffffffffffffffffffffff03821115612955576129546128db565b5b828201905092915050565b61296981612281565b82525050565b60006020820190506129846000830184612960565b92915050565b7f4552433732313a2063616c6c6572206973206e6f7420746f6b656e206f776e6560008201527f72206f7220617070726f76656400000000000000000000000000000000000000602082015250565b60006129e6602d836120a6565b91506129f18261298a565b604082019050919050565b60006020820190508181036000830152612a15816129d9565b9050919050565b600081905092915050565b6000612a328261209b565b612a3c8185612a1c565b9350612a4c8185602086016120b7565b80840191505092915050565b6000612a648284612a27565b915081905092915050565b6000612a7b8285612a27565b9150612a878284612a27565b91508190509392505050565b7f4552433732313a20696e76616c696420746f6b656e2049440000000000000000600082015250565b6000612ac96018836120a6565b9150612ad482612a93565b602082019050919050565b60006020820190508181036000830152612af881612abc565b9050919050565b7f4552433732313a2061646472657373207a65726f206973206e6f74206120766160008201527f6c6964206f776e65720000000000000000000000000000000000000000000000602082015250565b6000612b5b6029836120a6565b9150612b6682612aff565b604082019050919050565b60006020820190508181036000830152612b8a81612b4e565b9050919050565b600069ffffffffffffffffffff82169050919050565b612bb081612b91565b8114612bbb57600080fd5b50565b600081519050612bcd81612ba7565b92915050565b600081519050612be28161228b565b92915050565b600081519050612bf781612160565b92915050565b600080600080600060a08688031215612c1957612c18611fd6565b5b6000612c2788828901612bbe565b9550506020612c3888828901612bd3565b9450506040612c4988828901612be8565b9350506060612c5a88828901612be8565b9250506080612c6b88828901612bbe565b9150509295509295909350565b7f7b226e616d65223a220000000000000000000000000000000000000000000000600082015250565b6000612cae600983612a1c565b9150612cb982612c78565b600982019050919050565b7f222c20226465736372697074696f6e223a2022416e204e66742074686174206360008201527f68616e676573206261736564206f6e2074686520436861696e6c696e6b20466560208201527f6564222c20000000000000000000000000000000000000000000000000000000604082015250565b6000612d46604583612a1c565b9150612d5182612cc4565b604582019050919050565b7f2261747472696275746573223a205b7b2274726169745f74797065223a20226360008201527f6f6f6c6e657373222c202276616c7565223a203130307d5d2c2022696d61676560208201527f223a220000000000000000000000000000000000000000000000000000000000604082015250565b6000612dde604383612a1c565b9150612de982612d5c565b604382019050919050565b7f227d000000000000000000000000000000000000000000000000000000000000600082015250565b6000612e2a600283612a1c565b9150612e3582612df4565b600282019050919050565b6000612e4b82612ca1565b9150612e578285612a27565b9150612e6282612d39565b9150612e6d82612dd1565b9150612e798284612a27565b9150612e8482612e1d565b91508190509392505050565b7f4f776e61626c653a206e6577206f776e657220697320746865207a65726f206160008201527f6464726573730000000000000000000000000000000000000000000000000000602082015250565b6000612eec6026836120a6565b9150612ef782612e90565b604082019050919050565b60006020820190508181036000830152612f1b81612edf565b9050919050565b7f4e487b7100000000000000000000000000000000000000000000000000000000600052601260045260246000fd5b6000612f5c82612156565b9150612f6783612156565b925082612f7757612f76612f22565b5b828204905092915050565b6000612f8d82612156565b9150612f9883612156565b9250817fffffffffffffffffffffffffffffffffffffffffffffffffffffffffffffffff0483118215151615612fd157612fd06128db565b5b828202905092915050565b7f4552433732313a207472616e736665722066726f6d20696e636f72726563742060008201527f6f776e6572000000000000000000000000000000000000000000000000000000602082015250565b60006130386025836120a6565b915061304382612fdc565b604082019050919050565b600060208201905081810360008301526130678161302b565b9050919050565b7f4552433732313a207472616e7366657220746f20746865207a65726f2061646460008201527f7265737300000000000000000000000000000000000000000000000000000000602082015250565b60006130ca6024836120a6565b91506130d58261306e565b604082019050919050565b600060208201905081810360008301526130f9816130bd565b9050919050565b7f4f776e61626c653a2063616c6c6572206973206e6f7420746865206f776e6572600082015250565b60006131366020836120a6565b915061314182613100565b602082019050919050565b6000602082019050818103600083015261316581613129565b9050919050565b7f4552433732313a20617070726f766520746f2063616c6c657200000000000000600082015250565b60006131a26019836120a6565b91506131ad8261316c565b602082019050919050565b600060208201905081810360008301526131d181613195565b9050919050565b7f4552433732313a207472616e7366657220746f206e6f6e20455243373231526560008201527f63656976657220696d706c656d656e7465720000000000000000000000000000602082015250565b60006132346032836120a6565b915061323f826131d8565b604082019050919050565b6000602082019050818103600083015261326381613227565b9050919050565b600061327582612156565b915061328083612156565b925082821015613293576132926128db565b5b828203905092915050565b600081519050919050565b600082825260208201905092915050565b60006132c58261329e565b6132cf81856132a9565b93506132df8185602086016120b7565b6132e8816120ea565b840191505092915050565b600060808201905061330860008301876121eb565b61331560208301866121eb565b61332260408301856124b5565b818103606083015261333481846132ba565b905095945050505050565b60008151905061334e8161200c565b92915050565b60006020828403121561336a57613369611fd6565b5b60006133788482850161333f565b91505092915050565b7f4552433732313a206d696e7420746f20746865207a65726f2061646472657373600082015250565b60006133b76020836120a6565b91506133c282613381565b602082019050919050565b600060208201905081810360008301526133e6816133aa565b9050919050565b7f4552433732313a20746f6b656e20616c7265616479206d696e74656400000000600082015250565b6000613423601c836120a6565b915061342e826133ed565b602082019050919050565b6000602082019050818103600083015261345281613416565b905091905056fe4142434445464748494a4b4c4d4e4f505152535455565758595a6162636465666768696a6b6c6d6e6f707172737475767778797a303132333435363738392b2fa26469706673582212209d0bc575f4a6b82dabc7351608e54276d71eaa9943a557897bda64faa63f4f6364736f6c634300080800334142434445464748494a4b4c4d4e4f505152535455565758595a6162636465666768696a6b6c6d6e6f707172737475767778797a303132333435363738392b2f",
  "linkReferences": {},
  "deployedLinkReferences": {}
}