{
  "_format": "hh-sol-artifact-1",
  "contractName": "Attack",
  "sourceName": "contracts/sub/ReentrantVulnerable.sol",
  "abi": [
    {
      "inputs": [
        {
          "internalType": "address",
          "name": "_reentrantVulnerable",
          "type": "address"
        }
      ],
      "stateMutability": "nonpayable",
      "type": "constructor"
    },
    {
      "stateMutability": "payable",
      "type": "fallback"
    },
    {
      "inputs": [],
      "name": "attack",
      "outputs": [],
      "stateMutability": "payable",
      "type": "function"
    },
    {
      "inputs": [],
      "name": "getBalance",
      "outputs": [
        {
          "internalType": "uint256",
          "name": "",
          "type": "uint256"
        }
      ],
      "stateMutability": "view",
      "type": "function"
    },
    {
      "inputs": [],
      "name": "reentrantVulnerable",
      "outputs": [
        {
          "internalType": "contract ReentrantVulnerable",
          "name": "",
          "type": "address"
        }
      ],
      "stateMutability": "view",
      "type": "function"
    },
    {
      "stateMutability": "payable",
      "type": "receive"
    }
  ],
  "bytecode": "0x608060405234801561001057600080fd5b5060405161056b38038061056b8339818101604052810190610032919061008d565b806000806101000a81548173ffffffffffffffffffffffffffffffffffffffff021916908373ffffffffffffffffffffffffffffffffffffffff16021790555050610108565b600081519050610087816100f1565b92915050565b6000602082840312156100a3576100a26100ec565b5b60006100b184828501610078565b91505092915050565b60006100c5826100cc565b9050919050565b600073ffffffffffffffffffffffffffffffffffffffff82169050919050565b600080fd5b6100fa816100ba565b811461010557600080fd5b50565b610454806101176000396000f3fe6080604052600436106100385760003560e01c806312065fe01461014157806333684a051461016c5780639e5faafc1461019757610078565b36610078576040517f08c379a000000000000000000000000000000000000000000000000000000000815260040161006f90610349565b60405180910390fd5b670de0b6b3a764000060008054906101000a900473ffffffffffffffffffffffffffffffffffffffff1673ffffffffffffffffffffffffffffffffffffffff16311061013f5760008054906101000a900473ffffffffffffffffffffffffffffffffffffffff1673ffffffffffffffffffffffffffffffffffffffff16633ccfd60b6040518163ffffffff1660e01b8152600401600060405180830381600087803b15801561012657600080fd5b505af115801561013a573d6000803e3d6000fd5b505050505b005b34801561014d57600080fd5b506101566101a1565b6040516101639190610369565b60405180910390f35b34801561017857600080fd5b506101816101a9565b60405161018e919061032e565b60405180910390f35b61019f6101cd565b005b600047905090565b60008054906101000a900473ffffffffffffffffffffffffffffffffffffffff1681565b670de0b6b3a76400003410156101e257600080fd5b60008054906101000a900473ffffffffffffffffffffffffffffffffffffffff1673ffffffffffffffffffffffffffffffffffffffff1663d0e30db0670de0b6b3a76400006040518263ffffffff1660e01b81526004016000604051808303818588803b15801561025257600080fd5b505af1158015610266573d6000803e3d6000fd5b505050505060008054906101000a900473ffffffffffffffffffffffffffffffffffffffff1673ffffffffffffffffffffffffffffffffffffffff16633ccfd60b6040518163ffffffff1660e01b8152600401600060405180830381600087803b1580156102d357600080fd5b505af11580156102e7573d6000803e3d6000fd5b50505050565b6102f6816103bf565b82525050565b6000610309600d83610384565b9150610314826103f5565b602082019050919050565b610328816103b5565b82525050565b600060208201905061034360008301846102ed565b92915050565b60006020820190508181036000830152610362816102fc565b9050919050565b600060208201905061037e600083018461031f565b92915050565b600082825260208201905092915050565b600073ffffffffffffffffffffffffffffffffffffffff82169050919050565b6000819050919050565b60006103ca826103d1565b9050919050565b60006103dc826103e3565b9050919050565b60006103ee82610395565b9050919050565b7f6920676f74206e6f20696465610000000000000000000000000000000000000060008201525056fea26469706673582212206f7669702ea4a58d060acb74cff23915c6ffb74eca2b42940bfa152a3a626b5c64736f6c63430008070033",
  "linkReferences": {},
  "deployedLinkReferences": {}
}