{
  "_format": "hh-sol-artifact-1",
  "contractName": "ReentrantVulnerable",
  "sourceName": "contracts/sub/ReentrantVulnerable.sol",
  "abi": [
    {
      "inputs": [
        {
          "internalType": "address",
          "name": "",
          "type": "address"
        }
      ],
      "name": "balances",
      "outputs": [
        {
          "internalType": "uint256",
          "name": "",
          "type": "uint256"
        }
      ],
      "stateMutability": "view",
      "type": "function"
    },
    {
      "inputs": [],
      "name": "deposit",
      "outputs": [],
      "stateMutability": "payable",
      "type": "function"
    },
    {
      "inputs": [],
      "name": "getBalance",
      "outputs": [
        {
          "internalType": "uint256",
          "name": "",
          "type": "uint256"
        }
      ],
      "stateMutability": "view",
      "type": "function"
    },
    {
      "inputs": [],
      "name": "withdraw",
      "outputs": [],
      "stateMutability": "nonpayable",
      "type": "function"
    }
  ],
  "bytecode": "0x608060405234801561001057600080fd5b50610486806100206000396000f3fe60806040526004361061003f5760003560e01c806312065fe01461004457806327e235e31461006f5780633ccfd60b146100ac578063d0e30db0146100c3575b600080fd5b34801561005057600080fd5b506100596100cd565b6040516100669190610310565b60405180910390f35b34801561007b57600080fd5b5061009660048036038101906100919190610259565b6100d5565b6040516100a39190610310565b60405180910390f35b3480156100b857600080fd5b506100c16100ed565b005b6100cb6101ed565b005b600047905090565b60006020528060005260406000206000915090505481565b60008060003373ffffffffffffffffffffffffffffffffffffffff1673ffffffffffffffffffffffffffffffffffffffff1681526020019081526020016000205490506000811161013d57600080fd5b60003373ffffffffffffffffffffffffffffffffffffffff1682604051610163906102db565b60006040518083038185875af1925050503d80600081146101a0576040519150601f19603f3d011682016040523d82523d6000602084013e6101a5565b606091505b50509050806101e9576040517f08c379a00000000000000000000000000000000000000000000000000000000081526004016101e0906102f0565b60405180910390fd5b5050565b346000803373ffffffffffffffffffffffffffffffffffffffff1673ffffffffffffffffffffffffffffffffffffffff168152602001908152602001600020600082825461023b9190610347565b92505081905550565b60008135905061025381610439565b92915050565b60006020828403121561026f5761026e610408565b5b600061027d84828501610244565b91505092915050565b6000610293601583610336565b915061029e8261040d565b602082019050919050565b60006102b660008361032b565b91506102c182610436565b600082019050919050565b6102d5816103cf565b82525050565b60006102e6826102a9565b9150819050919050565b6000602082019050818103600083015261030981610286565b9050919050565b600060208201905061032560008301846102cc565b92915050565b600081905092915050565b600082825260208201905092915050565b6000610352826103cf565b915061035d836103cf565b9250827fffffffffffffffffffffffffffffffffffffffffffffffffffffffffffffffff03821115610392576103916103d9565b5b828201905092915050565b60006103a8826103af565b9050919050565b600073ffffffffffffffffffffffffffffffffffffffff82169050919050565b6000819050919050565b7f4e487b7100000000000000000000000000000000000000000000000000000000600052601160045260246000fd5b600080fd5b7f4661696c656420746f2073656e64206574686572200000000000000000000000600082015250565b50565b6104428161039d565b811461044d57600080fd5b5056fea264697066735822122053fef57e5312456af446ce256f26830c4e6abb69b9173533de926402bc8f9c3b64736f6c63430008070033",
  "linkReferences": {},
  "deployedLinkReferences": {}
}