{
  "_format": "hh-sol-artifact-1",
  "contractName": "BasicNft",
  "sourceName": "contracts/BasicNft.sol",
  "abi": [
    {
      "inputs": [],
      "stateMutability": "nonpayable",
      "type": "constructor"
    },
    {
      "anonymous": false,
      "inputs": [
        {
          "indexed": true,
          "internalType": "address",
          "name": "owner",
          "type": "address"
        },
        {
          "indexed": true,
          "internalType": "address",
          "name": "approved",
          "type": "address"
        },
        {
          "indexed": true,
          "internalType": "uint256",
          "name": "tokenId",
          "type": "uint256"
        }
      ],
      "name": "Approval",
      "type": "event"
    },
    {
      "anonymous": false,
      "inputs": [
        {
          "indexed": true,
          "internalType": "address",
          "name": "owner",
          "type": "address"
        },
        {
          "indexed": true,
          "internalType": "address",
          "name": "operator",
          "type": "address"
        },
        {
          "indexed": false,
          "internalType": "bool",
          "name": "approved",
          "type": "bool"
        }
      ],
      "name": "ApprovalForAll",
      "type": "event"
    },
    {
      "anonymous": false,
      "inputs": [
        {
          "indexed": true,
          "internalType": "address",
          "name": "from",
          "type": "address"
        },
        {
          "indexed": true,
          "internalType": "address",
          "name": "to",
          "type": "address"
        },
        {
          "indexed": true,
          "internalType": "uint256",
          "name": "tokenId",
          "type": "uint256"
        }
      ],
      "name": "Transfer",
      "type": "event"
    },
    {
      "inputs": [],
      "name": "TOKEN_URL",
      "outputs": [
        {
          "internalType": "string",
          "name": "",
          "type": "string"
        }
      ],
      "stateMutability": "view",
      "type": "function"
    },
    {
      "inputs": [
        {
          "internalType": "address",
          "name": "to",
          "type": "address"
        },
        {
          "internalType": "uint256",
          "name": "tokenId",
          "type": "uint256"
        }
      ],
      "name": "approve",
      "outputs": [],
      "stateMutability": "nonpayable",
      "type": "function"
    },
    {
      "inputs": [
        {
          "internalType": "address",
          "name": "owner",
          "type": "address"
        }
      ],
      "name": "balanceOf",
      "outputs": [
        {
          "internalType": "uint256",
          "name": "",
          "type": "uint256"
        }
      ],
      "stateMutability": "view",
      "type": "function"
    },
    {
      "inputs": [
        {
          "internalType": "uint256",
          "name": "tokenId",
          "type": "uint256"
        }
      ],
      "name": "getApproved",
      "outputs": [
        {
          "internalType": "address",
          "name": "",
          "type": "address"
        }
      ],
      "stateMutability": "view",
      "type": "function"
    },
    {
      "inputs": [],
      "name": "getTokenCounter",
      "outputs": [
        {
          "internalType": "uint256",
          "name": "",
          "type": "uint256"
        }
      ],
      "stateMutability": "view",
      "type": "function"
    },
    {
      "inputs": [
        {
          "internalType": "address",
          "name": "owner",
          "type": "address"
        },
        {
          "internalType": "address",
          "name": "operator",
          "type": "address"
        }
      ],
      "name": "isApprovedForAll",
      "outputs": [
        {
          "internalType": "bool",
          "name": "",
          "type": "bool"
        }
      ],
      "stateMutability": "view",
      "type": "function"
    },
    {
      "inputs": [],
      "name": "minNft",
      "outputs": [],
      "stateMutability": "nonpayable",
      "type": "function"
    },
    {
      "inputs": [],
      "name": "name",
      "outputs": [
        {
          "internalType": "string",
          "name": "",
          "type": "string"
        }
      ],
      "stateMutability": "view",
      "type": "function"
    },
    {
      "inputs": [
        {
          "internalType": "uint256",
          "name": "tokenId",
          "type": "uint256"
        }
      ],
      "name": "ownerOf",
      "outputs": [
        {
          "internalType": "address",
          "name": "",
          "type": "address"
        }
      ],
      "stateMutability": "view",
      "type": "function"
    },
    {
      "inputs": [
        {
          "internalType": "address",
          "name": "from",
          "type": "address"
        },
        {
          "internalType": "address",
          "name": "to",
          "type": "address"
        },
        {
          "internalType": "uint256",
          "name": "tokenId",
          "type": "uint256"
        }
      ],
      "name": "safeTransferFrom",
      "outputs": [],
      "stateMutability": "nonpayable",
      "type": "function"
    },
    {
      "inputs": [
        {
          "internalType": "address",
          "name": "from",
          "type": "address"
        },
        {
          "internalType": "address",
          "name": "to",
          "type": "address"
        },
        {
          "internalType": "uint256",
          "name": "tokenId",
          "type": "uint256"
        },
        {
          "internalType": "bytes",
          "name": "data",
          "type": "bytes"
        }
      ],
      "name": "safeTransferFrom",
      "outputs": [],
      "stateMutability": "nonpayable",
      "type": "function"
    },
    {
      "inputs": [
        {
          "internalType": "address",
          "name": "operator",
          "type": "address"
        },
        {
          "internalType": "bool",
          "name": "approved",
          "type": "bool"
        }
      ],
      "name": "setApprovalForAll",
      "outputs": [],
      "stateMutability": "nonpayable",
      "type": "function"
    },
    {
      "inputs": [
        {
          "internalType": "bytes4",
          "name": "interfaceId",
          "type": "bytes4"
        }
      ],
      "name": "supportsInterface",
      "outputs": [
        {
          "internalType": "bool",
          "name": "",
          "type": "bool"
        }
      ],
      "stateMutability": "view",
      "type": "function"
    },
    {
      "inputs": [],
      "name": "symbol",
      "outputs": [
        {
          "internalType": "string",
          "name": "",
          "type": "string"
        }
      ],
      "stateMutability": "view",
      "type": "function"
    },
    {
      "inputs": [
        {
          "internalType": "uint256",
          "name": "tokenId",
          "type": "uint256"
        }
      ],
      "name": "tokenURI",
      "outputs": [
        {
          "internalType": "string",
          "name": "",
          "type": "string"
        }
      ],
      "stateMutability": "pure",
      "type": "function"
    },
    {
      "inputs": [
        {
          "internalType": "address",
          "name": "from",
          "type": "address"
        },
        {
          "internalType": "address",
          "name": "to",
          "type": "address"
        },
        {
          "internalType": "uint256",
          "name": "tokenId",
          "type": "uint256"
        }
      ],
      "name": "transferFrom",
      "outputs": [],
      "stateMutability": "nonpayable",
      "type": "function"
    }
  ],
  "bytecode": "0x60806040523480156200001157600080fd5b506040518060400160405280600581526020017f446f6769650000000000000000000000000000000000000000000000000000008152506040518060400160405280600381526020017f444f470000000000000000000000000000000000000000000000000000000000815250816000908051906020019062000096929190620000c0565b508060019080519060200190620000af929190620000c0565b5050506000600681905550620001d5565b828054620000ce906200019f565b90600052602060002090601f016020900481019282620000f257600085556200013e565b82601f106200010d57805160ff19168380011785556200013e565b828001600101855582156200013e579182015b828111156200013d57825182559160200191906001019062000120565b5b5090506200014d919062000151565b5090565b5b808211156200016c57600081600090555060010162000152565b5090565b7f4e487b7100000000000000000000000000000000000000000000000000000000600052602260045260246000fd5b60006002820490506001821680620001b857607f821691505b60208210811415620001cf57620001ce62000170565b5b50919050565b61249180620001e56000396000f3fe608060405234801561001057600080fd5b50600436106101005760003560e01c80636e02007d11610097578063b88d4fde11610066578063b88d4fde146102ad578063c87b56dd146102c9578063e75e83ad146102f9578063e985e9c51461030357610100565b80636e02007d1461022557806370a082311461024357806395d89b4114610273578063a22cb4651461029157610100565b8063095ea7b3116100d3578063095ea7b3146101a157806323b872dd146101bd57806342842e0e146101d95780636352211e146101f557610100565b806301ffc9a71461010557806302b6bc5d1461013557806306fdde0314610153578063081812fc14610171575b600080fd5b61011f600480360381019061011a9190611702565b610333565b60405161012c919061174a565b60405180910390f35b61013d610415565b60405161014a91906117fe565b60405180910390f35b61015b610431565b60405161016891906117fe565b60405180910390f35b61018b60048036038101906101869190611856565b6104c3565b60405161019891906118c4565b60405180910390f35b6101bb60048036038101906101b6919061190b565b610509565b005b6101d760048036038101906101d2919061194b565b610621565b005b6101f360048036038101906101ee919061194b565b610681565b005b61020f600480360381019061020a9190611856565b6106a1565b60405161021c91906118c4565b60405180910390f35b61022d610728565b60405161023a91906119ad565b60405180910390f35b61025d600480360381019061025891906119c8565b610732565b60405161026a91906119ad565b60405180910390f35b61027b6107ea565b60405161028891906117fe565b60405180910390f35b6102ab60048036038101906102a69190611a21565b61087c565b005b6102c760048036038101906102c29190611b96565b610892565b005b6102e360048036038101906102de9190611856565b6108f4565b6040516102f091906117fe565b60405180910390f35b610301610916565b005b61031d60048036038101906103189190611c19565b610939565b60405161032a919061174a565b60405180910390f35b60007f80ac58cd000000000000000000000000000000000000000000000000000000007bffffffffffffffffffffffffffffffffffffffffffffffffffffffff1916827bffffffffffffffffffffffffffffffffffffffffffffffffffffffff191614806103fe57507f5b5e139f000000000000000000000000000000000000000000000000000000007bffffffffffffffffffffffffffffffffffffffffffffffffffffffff1916827bffffffffffffffffffffffffffffffffffffffffffffffffffffffff1916145b8061040e575061040d826109cd565b5b9050919050565b6040518060800160405280605781526020016124056057913981565b60606000805461044090611c88565b80601f016020809104026020016040519081016040528092919081815260200182805461046c90611c88565b80156104b95780601f1061048e576101008083540402835291602001916104b9565b820191906000526020600020905b81548152906001019060200180831161049c57829003601f168201915b5050505050905090565b60006104ce82610a37565b6004600083815260200190815260200160002060009054906101000a900473ffffffffffffffffffffffffffffffffffffffff169050919050565b6000610514826106a1565b90508073ffffffffffffffffffffffffffffffffffffffff168373ffffffffffffffffffffffffffffffffffffffff161415610585576040517f08c379a000000000000000000000000000000000000000000000000000000000815260040161057c90611d2c565b60405180910390fd5b8073ffffffffffffffffffffffffffffffffffffffff166105a4610a82565b73ffffffffffffffffffffffffffffffffffffffff1614806105d357506105d2816105cd610a82565b610939565b5b610612576040517f08c379a000000000000000000000000000000000000000000000000000000000815260040161060990611dbe565b60405180910390fd5b61061c8383610a8a565b505050565b61063261062c610a82565b82610b43565b610671576040517f08c379a000000000000000000000000000000000000000000000000000000000815260040161066890611e50565b60405180910390fd5b61067c838383610bd8565b505050565b61069c83838360405180602001604052806000815250610892565b505050565b6000806106ad83610ed2565b9050600073ffffffffffffffffffffffffffffffffffffffff168173ffffffffffffffffffffffffffffffffffffffff16141561071f576040517f08c379a000000000000000000000000000000000000000000000000000000000815260040161071690611ebc565b60405180910390fd5b80915050919050565b6000600654905090565b60008073ffffffffffffffffffffffffffffffffffffffff168273ffffffffffffffffffffffffffffffffffffffff1614156107a3576040517f08c379a000000000000000000000000000000000000000000000000000000000815260040161079a90611f4e565b60405180910390fd5b600360008373ffffffffffffffffffffffffffffffffffffffff1673ffffffffffffffffffffffffffffffffffffffff168152602001908152602001600020549050919050565b6060600180546107f990611c88565b80601f016020809104026020016040519081016040528092919081815260200182805461082590611c88565b80156108725780601f1061084757610100808354040283529160200191610872565b820191906000526020600020905b81548152906001019060200180831161085557829003601f168201915b5050505050905090565b61088e610887610a82565b8383610f0f565b5050565b6108a361089d610a82565b83610b43565b6108e2576040517f08c379a00000000000000000000000000000000000000000000000000000000081526004016108d990611e50565b60405180910390fd5b6108ee8484848461107c565b50505050565b6060604051806080016040528060578152602001612405605791399050919050565b60016006546109259190611f9d565b600681905550610937336006546110d8565b565b6000600560008473ffffffffffffffffffffffffffffffffffffffff1673ffffffffffffffffffffffffffffffffffffffff16815260200190815260200160002060008373ffffffffffffffffffffffffffffffffffffffff1673ffffffffffffffffffffffffffffffffffffffff16815260200190815260200160002060009054906101000a900460ff16905092915050565b60007f01ffc9a7000000000000000000000000000000000000000000000000000000007bffffffffffffffffffffffffffffffffffffffffffffffffffffffff1916827bffffffffffffffffffffffffffffffffffffffffffffffffffffffff1916149050919050565b610a40816110f6565b610a7f576040517f08c379a0000000000000000000000000000000000000000000000000000000008152600401610a7690611ebc565b60405180910390fd5b50565b600033905090565b816004600083815260200190815260200160002060006101000a81548173ffffffffffffffffffffffffffffffffffffffff021916908373ffffffffffffffffffffffffffffffffffffffff160217905550808273ffffffffffffffffffffffffffffffffffffffff16610afd836106a1565b73ffffffffffffffffffffffffffffffffffffffff167f8c5be1e5ebec7d5bd14f71427d1e84f3dd0314c0f7b2291e5b200ac8c7c3b92560405160405180910390a45050565b600080610b4f836106a1565b90508073ffffffffffffffffffffffffffffffffffffffff168473ffffffffffffffffffffffffffffffffffffffff161480610b915750610b908185610939565b5b80610bcf57508373ffffffffffffffffffffffffffffffffffffffff16610bb7846104c3565b73ffffffffffffffffffffffffffffffffffffffff16145b91505092915050565b8273ffffffffffffffffffffffffffffffffffffffff16610bf8826106a1565b73ffffffffffffffffffffffffffffffffffffffff1614610c4e576040517f08c379a0000000000000000000000000000000000000000000000000000000008152600401610c4590612065565b60405180910390fd5b600073ffffffffffffffffffffffffffffffffffffffff168273ffffffffffffffffffffffffffffffffffffffff161415610cbe576040517f08c379a0000000000000000000000000000000000000000000000000000000008152600401610cb5906120f7565b60405180910390fd5b610ccb8383836001611137565b8273ffffffffffffffffffffffffffffffffffffffff16610ceb826106a1565b73ffffffffffffffffffffffffffffffffffffffff1614610d41576040517f08c379a0000000000000000000000000000000000000000000000000000000008152600401610d3890612065565b60405180910390fd5b6004600082815260200190815260200160002060006101000a81549073ffffffffffffffffffffffffffffffffffffffff02191690556001600360008573ffffffffffffffffffffffffffffffffffffffff1673ffffffffffffffffffffffffffffffffffffffff168152602001908152602001600020600082825403925050819055506001600360008473ffffffffffffffffffffffffffffffffffffffff1673ffffffffffffffffffffffffffffffffffffffff16815260200190815260200160002060008282540192505081905550816002600083815260200190815260200160002060006101000a81548173ffffffffffffffffffffffffffffffffffffffff021916908373ffffffffffffffffffffffffffffffffffffffff160217905550808273ffffffffffffffffffffffffffffffffffffffff168473ffffffffffffffffffffffffffffffffffffffff167fddf252ad1be2c89b69c2b068fc378daa952ba7f163c4a11628f55a4df523b3ef60405160405180910390a4610ecd838383600161125d565b505050565b60006002600083815260200190815260200160002060009054906101000a900473ffffffffffffffffffffffffffffffffffffffff169050919050565b8173ffffffffffffffffffffffffffffffffffffffff168373ffffffffffffffffffffffffffffffffffffffff161415610f7e576040517f08c379a0000000000000000000000000000000000000000000000000000000008152600401610f7590612163565b60405180910390fd5b80600560008573ffffffffffffffffffffffffffffffffffffffff1673ffffffffffffffffffffffffffffffffffffffff16815260200190815260200160002060008473ffffffffffffffffffffffffffffffffffffffff1673ffffffffffffffffffffffffffffffffffffffff16815260200190815260200160002060006101000a81548160ff0219169083151502179055508173ffffffffffffffffffffffffffffffffffffffff168373ffffffffffffffffffffffffffffffffffffffff167f17307eab39ab6107e8899845ad3d59bd9653f200f220920489ca2b5937696c318360405161106f919061174a565b60405180910390a3505050565b611087848484610bd8565b61109384848484611263565b6110d2576040517f08c379a00000000000000000000000000000000000000000000000000000000081526004016110c9906121f5565b60405180910390fd5b50505050565b6110f28282604051806020016040528060008152506113fa565b5050565b60008073ffffffffffffffffffffffffffffffffffffffff1661111883610ed2565b73ffffffffffffffffffffffffffffffffffffffff1614159050919050565b600181111561125757600073ffffffffffffffffffffffffffffffffffffffff168473ffffffffffffffffffffffffffffffffffffffff16146111cb5780600360008673ffffffffffffffffffffffffffffffffffffffff1673ffffffffffffffffffffffffffffffffffffffff16815260200190815260200160002060008282546111c39190612215565b925050819055505b600073ffffffffffffffffffffffffffffffffffffffff168373ffffffffffffffffffffffffffffffffffffffff16146112565780600360008573ffffffffffffffffffffffffffffffffffffffff1673ffffffffffffffffffffffffffffffffffffffff168152602001908152602001600020600082825461124e9190611f9d565b925050819055505b5b50505050565b50505050565b60006112848473ffffffffffffffffffffffffffffffffffffffff16611455565b156113ed578373ffffffffffffffffffffffffffffffffffffffff1663150b7a026112ad610a82565b8786866040518563ffffffff1660e01b81526004016112cf949392919061229e565b602060405180830381600087803b1580156112e957600080fd5b505af192505050801561131a57506040513d601f19601f8201168201806040525081019061131791906122ff565b60015b61139d573d806000811461134a576040519150601f19603f3d011682016040523d82523d6000602084013e61134f565b606091505b50600081511415611395576040517f08c379a000000000000000000000000000000000000000000000000000000000815260040161138c906121f5565b60405180910390fd5b805181602001fd5b63150b7a0260e01b7bffffffffffffffffffffffffffffffffffffffffffffffffffffffff1916817bffffffffffffffffffffffffffffffffffffffffffffffffffffffff1916149150506113f2565b600190505b949350505050565b6114048383611478565b6114116000848484611263565b611450576040517f08c379a0000000000000000000000000000000000000000000000000000000008152600401611447906121f5565b60405180910390fd5b505050565b6000808273ffffffffffffffffffffffffffffffffffffffff163b119050919050565b600073ffffffffffffffffffffffffffffffffffffffff168273ffffffffffffffffffffffffffffffffffffffff1614156114e8576040517f08c379a00000000000000000000000000000000000000000000000000000000081526004016114df90612378565b60405180910390fd5b6114f1816110f6565b15611531576040517f08c379a0000000000000000000000000000000000000000000000000000000008152600401611528906123e4565b60405180910390fd5b61153f600083836001611137565b611548816110f6565b15611588576040517f08c379a000000000000000000000000000000000000000000000000000000000815260040161157f906123e4565b60405180910390fd5b6001600360008473ffffffffffffffffffffffffffffffffffffffff1673ffffffffffffffffffffffffffffffffffffffff16815260200190815260200160002060008282540192505081905550816002600083815260200190815260200160002060006101000a81548173ffffffffffffffffffffffffffffffffffffffff021916908373ffffffffffffffffffffffffffffffffffffffff160217905550808273ffffffffffffffffffffffffffffffffffffffff16600073ffffffffffffffffffffffffffffffffffffffff167fddf252ad1be2c89b69c2b068fc378daa952ba7f163c4a11628f55a4df523b3ef60405160405180910390a461169260008383600161125d565b5050565b6000604051905090565b600080fd5b600080fd5b60007fffffffff0000000000000000000000000000000000000000000000000000000082169050919050565b6116df816116aa565b81146116ea57600080fd5b50565b6000813590506116fc816116d6565b92915050565b600060208284031215611718576117176116a0565b5b6000611726848285016116ed565b91505092915050565b60008115159050919050565b6117448161172f565b82525050565b600060208201905061175f600083018461173b565b92915050565b600081519050919050565b600082825260208201905092915050565b60005b8381101561179f578082015181840152602081019050611784565b838111156117ae576000848401525b50505050565b6000601f19601f8301169050919050565b60006117d082611765565b6117da8185611770565b93506117ea818560208601611781565b6117f3816117b4565b840191505092915050565b6000602082019050818103600083015261181881846117c5565b905092915050565b6000819050919050565b61183381611820565b811461183e57600080fd5b50565b6000813590506118508161182a565b92915050565b60006020828403121561186c5761186b6116a0565b5b600061187a84828501611841565b91505092915050565b600073ffffffffffffffffffffffffffffffffffffffff82169050919050565b60006118ae82611883565b9050919050565b6118be816118a3565b82525050565b60006020820190506118d960008301846118b5565b92915050565b6118e8816118a3565b81146118f357600080fd5b50565b600081359050611905816118df565b92915050565b60008060408385031215611922576119216116a0565b5b6000611930858286016118f6565b925050602061194185828601611841565b9150509250929050565b600080600060608486031215611964576119636116a0565b5b6000611972868287016118f6565b9350506020611983868287016118f6565b925050604061199486828701611841565b9150509250925092565b6119a781611820565b82525050565b60006020820190506119c2600083018461199e565b92915050565b6000602082840312156119de576119dd6116a0565b5b60006119ec848285016118f6565b91505092915050565b6119fe8161172f565b8114611a0957600080fd5b50565b600081359050611a1b816119f5565b92915050565b60008060408385031215611a3857611a376116a0565b5b6000611a46858286016118f6565b9250506020611a5785828601611a0c565b9150509250929050565b600080fd5b600080fd5b7f4e487b7100000000000000000000000000000000000000000000000000000000600052604160045260246000fd5b611aa3826117b4565b810181811067ffffffffffffffff82111715611ac257611ac1611a6b565b5b80604052505050565b6000611ad5611696565b9050611ae18282611a9a565b919050565b600067ffffffffffffffff821115611b0157611b00611a6b565b5b611b0a826117b4565b9050602081019050919050565b82818337600083830152505050565b6000611b39611b3484611ae6565b611acb565b905082815260208101848484011115611b5557611b54611a66565b5b611b60848285611b17565b509392505050565b600082601f830112611b7d57611b7c611a61565b5b8135611b8d848260208601611b26565b91505092915050565b60008060008060808587031215611bb057611baf6116a0565b5b6000611bbe878288016118f6565b9450506020611bcf878288016118f6565b9350506040611be087828801611841565b925050606085013567ffffffffffffffff811115611c0157611c006116a5565b5b611c0d87828801611b68565b91505092959194509250565b60008060408385031215611c3057611c2f6116a0565b5b6000611c3e858286016118f6565b9250506020611c4f858286016118f6565b9150509250929050565b7f4e487b7100000000000000000000000000000000000000000000000000000000600052602260045260246000fd5b60006002820490506001821680611ca057607f821691505b60208210811415611cb457611cb3611c59565b5b50919050565b7f4552433732313a20617070726f76616c20746f2063757272656e74206f776e6560008201527f7200000000000000000000000000000000000000000000000000000000000000602082015250565b6000611d16602183611770565b9150611d2182611cba565b604082019050919050565b60006020820190508181036000830152611d4581611d09565b9050919050565b7f4552433732313a20617070726f76652063616c6c6572206973206e6f7420746f60008201527f6b656e206f776e6572206f7220617070726f76656420666f7220616c6c000000602082015250565b6000611da8603d83611770565b9150611db382611d4c565b604082019050919050565b60006020820190508181036000830152611dd781611d9b565b9050919050565b7f4552433732313a2063616c6c6572206973206e6f7420746f6b656e206f776e6560008201527f72206f7220617070726f76656400000000000000000000000000000000000000602082015250565b6000611e3a602d83611770565b9150611e4582611dde565b604082019050919050565b60006020820190508181036000830152611e6981611e2d565b9050919050565b7f4552433732313a20696e76616c696420746f6b656e2049440000000000000000600082015250565b6000611ea6601883611770565b9150611eb182611e70565b602082019050919050565b60006020820190508181036000830152611ed581611e99565b9050919050565b7f4552433732313a2061646472657373207a65726f206973206e6f74206120766160008201527f6c6964206f776e65720000000000000000000000000000000000000000000000602082015250565b6000611f38602983611770565b9150611f4382611edc565b604082019050919050565b60006020820190508181036000830152611f6781611f2b565b9050919050565b7f4e487b7100000000000000000000000000000000000000000000000000000000600052601160045260246000fd5b6000611fa882611820565b9150611fb383611820565b9250827fffffffffffffffffffffffffffffffffffffffffffffffffffffffffffffffff03821115611fe857611fe7611f6e565b5b828201905092915050565b7f4552433732313a207472616e736665722066726f6d20696e636f72726563742060008201527f6f776e6572000000000000000000000000000000000000000000000000000000602082015250565b600061204f602583611770565b915061205a82611ff3565b604082019050919050565b6000602082019050818103600083015261207e81612042565b9050919050565b7f4552433732313a207472616e7366657220746f20746865207a65726f2061646460008201527f7265737300000000000000000000000000000000000000000000000000000000602082015250565b60006120e1602483611770565b91506120ec82612085565b604082019050919050565b60006020820190508181036000830152612110816120d4565b9050919050565b7f4552433732313a20617070726f766520746f2063616c6c657200000000000000600082015250565b600061214d601983611770565b915061215882612117565b602082019050919050565b6000602082019050818103600083015261217c81612140565b9050919050565b7f4552433732313a207472616e7366657220746f206e6f6e20455243373231526560008201527f63656976657220696d706c656d656e7465720000000000000000000000000000602082015250565b60006121df603283611770565b91506121ea82612183565b604082019050919050565b6000602082019050818103600083015261220e816121d2565b9050919050565b600061222082611820565b915061222b83611820565b92508282101561223e5761223d611f6e565b5b828203905092915050565b600081519050919050565b600082825260208201905092915050565b600061227082612249565b61227a8185612254565b935061228a818560208601611781565b612293816117b4565b840191505092915050565b60006080820190506122b360008301876118b5565b6122c060208301866118b5565b6122cd604083018561199e565b81810360608301526122df8184612265565b905095945050505050565b6000815190506122f9816116d6565b92915050565b600060208284031215612315576123146116a0565b5b6000612323848285016122ea565b91505092915050565b7f4552433732313a206d696e7420746f20746865207a65726f2061646472657373600082015250565b6000612362602083611770565b915061236d8261232c565b602082019050919050565b6000602082019050818103600083015261239181612355565b9050919050565b7f4552433732313a20746f6b656e20616c7265616479206d696e74656400000000600082015250565b60006123ce601c83611770565b91506123d982612398565b602082019050919050565b600060208201905081810360008301526123fd816123c1565b905091905056fe697066733a2f2f62616679626569673337696f6972373673376d67356f6f6265746e636f6a636d3363336878617379643472766964346a71687934676b61686567342f3f66696c656e616d653d302d5055472e6a736f6ea2646970667358221220fd29bb86a816fa14d8ed98ac5a5c10ecc3052e32d74be0aa0aa11b057b73754f64736f6c63430008080033",
  "linkReferences": {},
  "deployedLinkReferences": {}
}